:100000000C9462000C948A000C948A000C948A0070
:100010000C948A000C948A000C948A000C948A0038
:100020000C948A000C948A000C948A000C948A0028
:100030000C948A000C948A000C948A000C948A0018
:100040000C9400020C948A000C94D4030C948A0043
:100050000C948A000C948A000C948A000C948A00F8
:100060000C948A000C948A000000000024002700F1
:100070002A0000000000250028002B0000000000DE
:1000800023002600290004040404040404040202DA
:100090000202020203030303030301020408102007
:1000A0004080010204081020010204081020000012
:1000B0000007000201000003040600000000000029
:1000C00000001D0511241FBECFEFD8E0DEBFCDBF5D
:1000D00011E0A0E0B1E0E8EDFDE002C005900D9276
:1000E000A031B107D9F711E0A0E1B1E001C01D9244
:1000F000A03BB107E1F710E0C4ECD0E004C02297C8
:10010000FE010E94E606C23CD107C9F70E94F90130
:100110000C94EA060C9400002F923F924F925F924B
:100120006F927F928F929F92AF92BF92CF92DF9207
:10013000EF92FF920F931F93CF93DF933C012B011C
:100140001A01E9010E944802AB01BC019DE9A92EF8
:1001500091E0B92EC5010E942E0680E0882E81E034
:10016000982EC501B4010E948E05C501B3010E94FD
:100170005906C501B4010E948E05C501B2010E9455
:100180005906C501B4010E948E05C501B1010E9446
:100190005906C501B4010E948E05C501BE010E9429
:1001A0005906C501B4010E948E05C501B8010E941F
:1001B0005906C501B4010E948E05C501B7010E9410
:1001C0005906C501B4010E948E05C501B6010E9401
:1001D0005906C50162E071E00E948E05DF91CF9162
:1001E0001F910F91FF90EF90DF90CF90BF90AF9055
:1001F0009F908F907F906F905F904F903F902F9047
:10020000089587E061E020E432E44FE050E00E948E
:10021000530387E061E020E432E44FE050E00E94C5
:1002200053032AE030E040E050E00E949306DA01F8
:10023000C90123E0880F991FAA1FBB1F2A95D1F778
:10024000805A0E94C802089586E061E020E432E40A
:100250004FE050E00E94530386E061E020E432E486
:100260004FE050E00E9453032AE030E040E050E0CD
:100270000E949306DA01C90133E0880F991FAA1F73
:10028000BB1F3A95D1F7805A0E94C802089585E0B5
:1002900061E020E432E44FE050E00E94530385E047
:1002A00061E020E432E44FE050E00E9453032AE092
:1002B00030E040E050E00E949306DA01C90143E0DB
:1002C000880F991FAA1FBB1F4A95D1F7805A0E9419
:1002D000C802089580E00E94C802089581E00E944B
:1002E000C802089582E00E94C80208958DE061E08E
:1002F0000E94E6028DE060E00E94060382E090E04A
:100300000E9480028DE061E00E94060385E090E09B
:100310000E9480028DE060E00E9406038DE060E0B4
:100320000E94E6028DE061E020E432E44FE050E01C
:100330000E9453032AE330E040E050E00E94B506FB
:10034000C90108954F925F926F927F928F929F9210
:10035000AF92BF92CF92DF92EF92FF920F931F93D3
:100360000E9476012C010E9472013C010E946E01E4
:100370004C010E946A015C010E9447018C010E94AD
:1003800024017C010E9401016C01C201B301A4019E
:1003900095010E948C0064E670E080E090E00E948D
:1003A00056021F910F91FF90EF90DF90CF90BF907A
:1003B000AF909F908F907F906F905F904F90089537
:1003C0008DE991E040E855E260E070E00E941104A0
:1003D0008DE060E00E94E60285E060E00E94E602B7
:1003E00086E060E00E94E60287E060E00E94E602AC
:1003F00008950E948E020E94E0010E94A201FDCF9A
:100400001F920F920FB60F9211242F933F938F9349
:100410009F93AF93BF938091140190911501A09188
:100420001601B0911701309118010196A11DB11D5F
:10043000232F2D5F2D3720F02D570196A11DB11DC3
:10044000209318018093140190931501A093160135
:10045000B09317018091100190911101A0911201A8
:10046000B09113010196A11DB11D809310019093CD
:100470001101A0931201B0931301BF91AF919F910D
:100480008F913F912F910F900FBE0F901F90189555
:100490008FB7F89420911401309115014091160105
:1004A000509117018FBFB901CA010895EF92FF92D1
:1004B0000F931F937B018C018FB7F8944091140127
:1004C0005091150160911601709117018FBF2FB7E0
:1004D000F8948091140190911501A0911601B091AA
:1004E00017012FBF841B950BA60BB70BE816F90657
:1004F0000A071B0760F71F910F91FF90EF90089577
:10050000019759F0FC01EE0FFF1FEE0FFF1F32970E
:100510008FB7F8943197F1F78FBF0895789484B529
:10052000826084BD84B5816084BD85B5826085BDEF
:1005300085B5816085BDEEE6F0E0808181608083D5
:10054000E1E8F0E080818260808380818160808347
:10055000E0E8F0E0808181608083E1EBF0E0808181
:1005600084608083E0EBF0E0808181608083EAE753
:10057000F0E08081846080838081826080838081DC
:10058000816080838081806880831092C10008959B
:100590008F70909104019295990F990F907C982BF0
:1005A00090937C0080917A00806480937A0080919F
:1005B0007A0086FDFCCF2091780040917900942F3D
:1005C00080E030E0282B392BC9010895282F30E036
:1005D000C90186569F4FFC0194912A573F4FF9015C
:1005E0008491882391F0E82FF0E0EE0FFF1FE85987
:1005F000FF4FA591B491662329F48C91909589239E
:100600008C9308958C91892B8C930895482F50E0FA
:10061000CA0182559F4FFC012491CA0186569F4F03
:10062000FC0194914A575F4FFA0134913323D1F181
:10063000222331F1233021F4809180008F7705C08F
:10064000243031F4809180008F7D8093800018C029
:10065000213019F484B58F7704C0223021F484B599
:100660008F7D84BD0DC0263021F48091B0008F773E
:1006700005C0273029F48091B0008F7D8093B000B1
:10068000E32FF0E0EE0FFF1FEE58FF4FA591B4915E
:10069000662329F48C91909589238C9308958C91ED
:1006A000892B8C930895DF92EF92FF920F931F9303
:1006B000A82FB0E0CD0186569F4FFC01D490AA57D9
:1006C000BF4FFD018491662311F490E001C09D2D80
:1006D0006FEFE62E6FEFF62E6FEF062F6FE0162FFF
:1006E000E222F32204231523682F70E0660F771FA0
:1006F00064587F4F20E030E040E050E0FB01A591DE
:10070000B4910AC02E153F054007510709F440C0B7
:100710002F5F3F4F4F4F5F4F8C918D21891791F382
:100720000AC02E153F054007510791F12F5F3F4F3B
:100730004F4F5F4F03C0FB01A591B4918C918D2168
:10074000891779F720E030E040E050E0FB01A59107
:10075000B49104C02F5F3F4F4F4F5F4F8C918D215D
:100760008917C1F3CA01B9012AE030E040E050E046
:100770000E9461069B01AC01205F3F4F4F4F5F4FCE
:1007800084E056954795379527958A95D1F704C00B
:1007900020E030E040E050E0B901CA011F910F9124
:1007A000FF90EF90DF9008951F920F920FB60F9277
:1007B00011242F933F934F935F936F937F938F9366
:1007C0009F93AF93BF93EF93FF934091C600E09147
:1007D0009901F0919A01CF01019660E870E00E94C2
:1007E00080069C0180919B0190919C0128173907FC
:1007F00039F0E75EFE4F408330939A0120939901D0
:10080000FF91EF91BF91AF919F918F917F916F91E8
:100810005F914F913F912F910F900FBE0F901F90BE
:1008200018955F926F927F928F929F92AF92BF9234
:10083000CF92DF92EF92FF920F931F93CF93DF93AC
:10084000EC013A014B01413482E458078FE068071C
:1008500080E078070CF07FC060E874E88EE190E0FB
:10086000A40193010E94B506215030404040504001
:10087000CA01B90122E030E040E050E00E94B50634
:1008800059016A01A6019501209530954095509532
:1008900094E0220F331F441F551F9A95D1F760E053
:1008A00074E284EF90E00E94B506CA01B9012FEF0F
:1008B00030E040E050E00E946106A40193010E94F4
:1008C000B506C90181509F4F181619061CF4522E07
:1008D0005A9403C055245394521A60E079E08DE392
:1008E00090E0A40193010E94B506215030404040A1
:1008F0005040CA01B90122E030E040E050E00E94DF
:10090000B506209530954095509583E0220F331F12
:10091000441F551F8A95D1F760E074E284EF90E0A0
:100920000E94B506CA01B9012FEF30E040E050E067
:100930000E946106A40193010E94B506C90181507D
:100940009F4F181619061CF4822F815002C081E0B7
:10095000821B851500F5E885F98581E090E00A881D
:1009600002C0880F991F0A94E2F7808360E079E063
:100970008DE390E0A40193010E94B5062150304020
:1009800040405040CA01B90122E030E040E050E070
:100990000E94B50604C0E885F98510829501EC81B6
:1009A000FD813083EE81FF812083EA85FB852081F4
:1009B00041E050E0CA010E8402C0880F991F0A94DA
:1009C000E2F7282B2083EA85FB852081CA010F846A
:1009D00002C0880F991F0A94E2F7282B2083EA852A
:1009E000FB858081088802C0440F551F0A94E2F7F6
:1009F000842B8083DF91CF911F910F91FF90EF9017
:100A0000DF90CF90BF90AF909F908F907F906F902E
:100A10005F900895FC01A085B18521898C9190E0BB
:100A2000022E02C0959587950A94E2F780FFF6CFD3
:100A30000484F585E02D6083089589E091E090932A
:100A40009E0180939D0189E191E09093A0018093A4
:100A50009F0185EC90E09093A2018093A10184EC2A
:100A600090E09093A4018093A30180EC90E0909398
:100A7000A6018093A50181EC90E09093A80180935A
:100A8000A70186EC90E09093AA018093A90184E0ED
:100A90008093AB0183E08093AC0187E08093AD014C
:100AA00085E08093AE0181E08093AF0108950F93BC
:100AB0001F93CF93DF938C01EB0109C02196D801DE
:100AC000ED91FC910190F081E02DC80109956881BC
:100AD0006623A1F7DF91CF911F910F910895EF92B7
:100AE000FF920F931F93CF93DF938C017B01EA0159
:100AF0000CC0D7016D917D01D801ED91FC91019061
:100B0000F081E02DC80109952197209791F7DF9199
:100B1000CF911F910F91FF90EF900895DC01ED911F
:100B2000FC910280F381E02D099508952F923F9268
:100B30004F925F926F927F928F929F92AF92BF92ED
:100B4000CF92DF92EF92FF920F931F93DF93CF9399
:100B5000CDB7DEB7A0970FB6F894DEBF0FBECDBFFE
:100B60001C016A017B01411551056105710549F4BC
:100B7000DC01ED91FC910190F081E02D60E309959D
:100B800054C0882499245401422E55246624772485
:100B900001E010E00C0F1D1F080D191DC701B60163
:100BA000A30192010E949306F80160830894811CBE
:100BB000911CA11CB11CC701B601A30192010E94A6
:100BC0009306C901DA016C017D01C114D104E1046D
:100BD000F104F1F681E0E82EF12CEC0EFD1EE80C9C
:100BE000F91C3E010894611C711CD501C4010197D8
:100BF000A109B1096C01C818D90814C0F601EE0D9D
:100C0000FF1D60816A3010F4605D01C0695CD10134
:100C1000ED91FC910190F081E02DC10109950894BE
:100C2000E108F1086E147F0449F7A0960FB6F89416
:100C3000DEBF0FBECDBFCF91DF911F910F91FF900F
:100C4000EF90DF90CF90BF90AF909F908F907F906C
:100C50006F905F904F903F902F9008952AE00E94F0
:100C600096050895EF92FF920F931F93CF93DF9312
:100C7000EC017A018B0177FF0FC0E881F9810190C7
:100C8000F081E02D6DE2099510950095F094E094C7
:100C9000E11CF11C011D111DCE01B801A7012AE0C4
:100CA0000E949605DF91CF911F910F91FF90EF90D9
:100CB0000895AB01662757FD6095762F0E94320696
:100CC0000895629FD001739FF001829FE00DF11D96
:100CD000649FE00DF11D929FF00D839FF00D749FB6
:100CE000F00D659FF00D9927729FB00DE11DF91F62
:100CF000639FB00DE11DF91FBD01CF0111240895BF
:100D000097FB092E07260AD077FD04D049D006D0DC
:100D100000201AF4709561957F4F0895F6F790952D
:100D200081959F4F0895A1E21A2EAA1BBB1BFD01BE
:100D30000DC0AA1FBB1FEE1FFF1FA217B307E407BA
:100D4000F50720F0A21BB30BE40BF50B661F771F12
:100D5000881F991F1A9469F76095709580959095F2
:100D60009B01AC01BD01CF01089597FB092E05261B
:100D70000ED057FD04D0D7DF0AD0001C38F45095B0
:100D80004095309521953F4F4F4F5F4F0895F6F7AF
:100D900090958095709561957F4F8F4F9F4F0895E7
:100DA000AA1BBB1B51E107C0AA1FBB1FA617B70791
:100DB00010F0A61BB70B881F991F5A95A9F78095AD
:100DC0009095BC01CD010895EE0FFF1F0590F491A1
:080DD000E02D0994F894FFCF17
:100DD8002C000A0001000000000A0557056F0500F5
:00000001FF
